01EPF MONTHLY FORM    02400705ABCDEFGH ASSURANCE COMPANY    501868491001        D 06052016KWSP      0000000000011111111072015014PUSHPAL1                                00000000000123456789N00NP01                                                                                                                                                                                                                                                                                             
020000000000015790001780101106053   TESTING 10                                                                      123                 000000000000001000000000000000010000000000000004000                                                                                                                                                                                                                                                                                                     
020000000000015798563780101106053   TESTING 22                                                                      456                 000000000000011000000000000000110000000000000008000                                                                                                                                                                                                                                                                                                     
020000000000015790001780101106053   TESTING 10                                                                      123                 000000000000111000000000000001110000000000000004000                                                                                                                                                                                                                                                                                                     
020000000000015798563780101106053   TESTING 22                                                                      456                 000000000001111000000000000011110000000000000008000                                                                                                                                                                                                                                                                                                     
020000000000015790001780101106053   TESTING 10                                                                      123                 000000000000031000000000000000310000000000000004000                                                                                                                                                                                                                                                                                                     
020000000000015798563780101106053   TESTING 22                                                                      456                 000000000000331000000000000003310000000000000008000                                                                                                                                                                                                                                                                                                     
99000000600000000000159600000000000001596000000000000000000000                                                                                                                                                                                                                                                                                                                                                                                                                                  
